{
	"data": {
		"bytecode": {
			"linkReferences": {},
			"object": "608060405234801561001057600080fd5b5061027a806100206000396000f3fe608060405234801561001057600080fd5b50600436106101165760003560e01c80636233be5d116100a2578063cd779d2111610071578063cd779d21146101f5578063d5074883146101fe578063daa77ea21461020f578063db78dd2814610218578063efe222661461023b57600080fd5b80636233be5d146101b15780638ae53dbd146101ba578063be645692146101c9578063c967f90f146101d957600080fd5b8063182637b8116100e9578063182637b8146101645780631b5e358c1461018557806332dc3b941461018e5780633a061bd31461019f57806342127ee7146101a857600080fd5b80630976c65d1461011b5780630a0b5e511461011b5780630e15561a1461013e578063158ef93e14610147575b600080fd5b61012b68d5f7a0e3e5d2cc000081565b6040519081526020015b60405180910390f35b61012b60025481565b6000546101549060ff1681565b6040519015158152602001610135565b61016d61f00781565b6040516001600160a01b039091168152602001610135565b61016d61f00181565b61012b69085be3cbc1c8d988000081565b61016d61f00081565b61012b61ea6081565b61016d61f00281565b61012b670de0b6b3a764000081565b61012b6801bc16d674ec80000081565b6101e261271081565b60405161ffff9091168152602001610135565b61012b61753081565b61012b695396bc536dbd8924000081565b61012b61271081565b6102226201518081565b60405167ffffffffffffffff9091168152602001610135565b61012b6001548156fea26469706673582212205cf0c27a96393a3d0bb993481477f50317f03e97992b3b8fd0f537da69f4ae4464736f6c63430008110033",
			"opcodes": "PUSH1 0x80 PUSH1 0x40 MSTORE CALLVALUE DUP1 ISZERO PUSH2 0x10 JUMPI PUSH1 0x0 DUP1 REVERT JUMPDEST POP PUSH2 0x27A DUP1 PUSH2 0x20 PUSH1 0x0 CODECOPY PUSH1 0x0 RETURN INVALID PUSH1 0x80 PUSH1 0x40 MSTORE CALLVALUE DUP1 ISZERO PUSH2 0x10 JUMPI PUSH1 0x0 DUP1 REVERT JUMPDEST POP PUSH1 0x4 CALLDATASIZE LT PUSH2 0x116 JUMPI PUSH1 0x0 CALLDATALOAD PUSH1 0xE0 SHR DUP1 PUSH4 0x6233BE5D GT PUSH2 0xA2 JUMPI DUP1 PUSH4 0xCD779D21 GT PUSH2 0x71 JUMPI DUP1 PUSH4 0xCD779D21 EQ PUSH2 0x1F5 JUMPI DUP1 PUSH4 0xD5074883 EQ PUSH2 0x1FE JUMPI DUP1 PUSH4 0xDAA77EA2 EQ PUSH2 0x20F JUMPI DUP1 PUSH4 0xDB78DD28 EQ PUSH2 0x218 JUMPI DUP1 PUSH4 0xEFE22266 EQ PUSH2 0x23B JUMPI PUSH1 0x0 DUP1 REVERT JUMPDEST DUP1 PUSH4 0x6233BE5D EQ PUSH2 0x1B1 JUMPI DUP1 PUSH4 0x8AE53DBD EQ PUSH2 0x1BA JUMPI DUP1 PUSH4 0xBE645692 EQ PUSH2 0x1C9 JUMPI DUP1 PUSH4 0xC967F90F EQ PUSH2 0x1D9 JUMPI PUSH1 0x0 DUP1 REVERT JUMPDEST DUP1 PUSH4 0x182637B8 GT PUSH2 0xE9 JUMPI DUP1 PUSH4 0x182637B8 EQ PUSH2 0x164 JUMPI DUP1 PUSH4 0x1B5E358C EQ PUSH2 0x185 JUMPI DUP1 PUSH4 0x32DC3B94 EQ PUSH2 0x18E JUMPI DUP1 PUSH4 0x3A061BD3 EQ PUSH2 0x19F JUMPI DUP1 PUSH4 0x42127EE7 EQ PUSH2 0x1A8 JUMPI PUSH1 0x0 DUP1 REVERT JUMPDEST DUP1 PUSH4 0x976C65D EQ PUSH2 0x11B JUMPI DUP1 PUSH4 0xA0B5E51 EQ PUSH2 0x11B JUMPI DUP1 PUSH4 0xE15561A EQ PUSH2 0x13E JUMPI DUP1 PUSH4 0x158EF93E EQ PUSH2 0x147 JUMPI JUMPDEST PUSH1 0x0 DUP1 REVERT JUMPDEST PUSH2 0x12B PUSH9 0xD5F7A0E3E5D2CC0000 DUP2 JUMP JUMPDEST PUSH1 0x40 MLOAD SWAP1 DUP2 MSTORE PUSH1 0x20 ADD JUMPDEST PUSH1 0x40 MLOAD DUP1 SWAP2 SUB SWAP1 RETURN JUMPDEST PUSH2 0x12B PUSH1 0x2 SLOAD DUP2 JUMP JUMPDEST PUSH1 0x0 SLOAD PUSH2 0x154 SWAP1 PUSH1 0xFF AND DUP2 JUMP JUMPDEST PUSH1 0x40 MLOAD SWAP1 ISZERO ISZERO DUP2 MSTORE PUSH1 0x20 ADD PUSH2 0x135 JUMP JUMPDEST PUSH2 0x16D PUSH2 0xF007 DUP2 JUMP JUMPDEST PUSH1 0x40 MLOAD PUSH1 0x1 PUSH1 0x1 PUSH1 0xA0 SHL SUB SWAP1 SWAP2 AND DUP2 MSTORE PUSH1 0x20 ADD PUSH2 0x135 JUMP JUMPDEST PUSH2 0x16D PUSH2 0xF001 DUP2 JUMP JUMPDEST PUSH2 0x12B PUSH10 0x85BE3CBC1C8D9880000 DUP2 JUMP JUMPDEST PUSH2 0x16D PUSH2 0xF000 DUP2 JUMP JUMPDEST PUSH2 0x12B PUSH2 0xEA60 DUP2 JUMP JUMPDEST PUSH2 0x16D PUSH2 0xF002 DUP2 JUMP JUMPDEST PUSH2 0x12B PUSH8 0xDE0B6B3A7640000 DUP2 JUMP JUMPDEST PUSH2 0x12B PUSH9 0x1BC16D674EC800000 DUP2 JUMP JUMPDEST PUSH2 0x1E2 PUSH2 0x2710 DUP2 JUMP JUMPDEST PUSH1 0x40 MLOAD PUSH2 0xFFFF SWAP1 SWAP2 AND DUP2 MSTORE PUSH1 0x20 ADD PUSH2 0x135 JUMP JUMPDEST PUSH2 0x12B PUSH2 0x7530 DUP2 JUMP JUMPDEST PUSH2 0x12B PUSH10 0x5396BC536DBD89240000 DUP2 JUMP JUMPDEST PUSH2 0x12B PUSH2 0x2710 DUP2 JUMP JUMPDEST PUSH2 0x222 PUSH3 0x15180 DUP2 JUMP JUMPDEST PUSH1 0x40 MLOAD PUSH8 0xFFFFFFFFFFFFFFFF SWAP1 SWAP2 AND DUP2 MSTORE PUSH1 0x20 ADD PUSH2 0x135 JUMP JUMPDEST PUSH2 0x12B PUSH1 0x1 SLOAD DUP2 JUMP INVALID LOG2 PUSH5 0x6970667358 0x22 SLT KECCAK256 0x5C CREATE 0xC2 PUSH27 0x96393A3D0BB993481477F50317F03E97992B3B8FD0F537DA69F4AE DIFFICULTY PUSH5 0x736F6C6343 STOP ADDMOD GT STOP CALLER "
		},
		"gasEstimates": {
			"creation": {
				"codeDepositCost": "126800",
				"executionCost": "171",
				"totalCost": "126971"
			},
			"external": {
				"BronzeValidatorStaking()": "230",
				"GoldValidatorStaking()": "228",
				"MaxValidators()": "293",
				"MinimalStakingCoin()": "251",
				"ProposalAddr()": "239",
				"PunishContractAddr()": "261",
				"SilverValidatorStaking()": "251",
				"SlashingContractAddr()": "239",
				"StakingLockPeriod()": "292",
				"ValidatorContractAddr()": "305",
				"creatorPartPercent()": "250",
				"extraRewardsPerBlock()": "229",
				"initialized()": "2400",
				"minimumValidatorStaking()": "208",
				"rewardFund()": "2394",
				"stakerPartPercent()": "206",
				"totalRewards()": "2352",
				"validatorPartPercent()": "295"
			}
		},
		"methodIdentifiers": {
			"BronzeValidatorStaking()": "0a0b5e51",
			"GoldValidatorStaking()": "d5074883",
			"MaxValidators()": "c967f90f",
			"MinimalStakingCoin()": "be645692",
			"ProposalAddr()": "6233be5d",
			"PunishContractAddr()": "1b5e358c",
			"SilverValidatorStaking()": "32dc3b94",
			"SlashingContractAddr()": "182637b8",
			"StakingLockPeriod()": "db78dd28",
			"ValidatorContractAddr()": "3a061bd3",
			"creatorPartPercent()": "daa77ea2",
			"extraRewardsPerBlock()": "8ae53dbd",
			"initialized()": "158ef93e",
			"minimumValidatorStaking()": "0976c65d",
			"rewardFund()": "efe22266",
			"stakerPartPercent()": "cd779d21",
			"totalRewards()": "0e15561a",
			"validatorPartPercent()": "42127ee7"
		}
	},
	"abi": [
		{
			"inputs": [],
			"name": "BronzeValidatorStaking",
			"outputs": [
				{
					"internalType": "uint256",
					"name": "",
					"type": "uint256"
				}
			],
			"stateMutability": "view",
			"type": "function"
		},
		{
			"inputs": [],
			"name": "GoldValidatorStaking",
			"outputs": [
				{
					"internalType": "uint256",
					"name": "",
					"type": "uint256"
				}
			],
			"stateMutability": "view",
			"type": "function"
		},
		{
			"inputs": [],
			"name": "MaxValidators",
			"outputs": [
				{
					"internalType": "uint16",
					"name": "",
					"type": "uint16"
				}
			],
			"stateMutability": "view",
			"type": "function"
		},
		{
			"inputs": [],
			"name": "MinimalStakingCoin",
			"outputs": [
				{
					"internalType": "uint256",
					"name": "",
					"type": "uint256"
				}
			],
			"stateMutability": "view",
			"type": "function"
		},
		{
			"inputs": [],
			"name": "ProposalAddr",
			"outputs": [
				{
					"internalType": "address",
					"name": "",
					"type": "address"
				}
			],
			"stateMutability": "view",
			"type": "function"
		},
		{
			"inputs": [],
			"name": "PunishContractAddr",
			"outputs": [
				{
					"internalType": "address",
					"name": "",
					"type": "address"
				}
			],
			"stateMutability": "view",
			"type": "function"
		},
		{
			"inputs": [],
			"name": "SilverValidatorStaking",
			"outputs": [
				{
					"internalType": "uint256",
					"name": "",
					"type": "uint256"
				}
			],
			"stateMutability": "view",
			"type": "function"
		},
		{
			"inputs": [],
			"name": "SlashingContractAddr",
			"outputs": [
				{
					"internalType": "address",
					"name": "",
					"type": "address"
				}
			],
			"stateMutability": "view",
			"type": "function"
		},
		{
			"inputs": [],
			"name": "StakingLockPeriod",
			"outputs": [
				{
					"internalType": "uint64",
					"name": "",
					"type": "uint64"
				}
			],
			"stateMutability": "view",
			"type": "function"
		},
		{
			"inputs": [],
			"name": "ValidatorContractAddr",
			"outputs": [
				{
					"internalType": "address payable",
					"name": "",
					"type": "address"
				}
			],
			"stateMutability": "view",
			"type": "function"
		},
		{
			"inputs": [],
			"name": "creatorPartPercent",
			"outputs": [
				{
					"internalType": "uint256",
					"name": "",
					"type": "uint256"
				}
			],
			"stateMutability": "view",
			"type": "function"
		},
		{
			"inputs": [],
			"name": "extraRewardsPerBlock",
			"outputs": [
				{
					"internalType": "uint256",
					"name": "",
					"type": "uint256"
				}
			],
			"stateMutability": "view",
			"type": "function"
		},
		{
			"inputs": [],
			"name": "initialized",
			"outputs": [
				{
					"internalType": "bool",
					"name": "",
					"type": "bool"
				}
			],
			"stateMutability": "view",
			"type": "function"
		},
		{
			"inputs": [],
			"name": "minimumValidatorStaking",
			"outputs": [
				{
					"internalType": "uint256",
					"name": "",
					"type": "uint256"
				}
			],
			"stateMutability": "view",
			"type": "function"
		},
		{
			"inputs": [],
			"name": "rewardFund",
			"outputs": [
				{
					"internalType": "uint256",
					"name": "",
					"type": "uint256"
				}
			],
			"stateMutability": "view",
			"type": "function"
		},
		{
			"inputs": [],
			"name": "stakerPartPercent",
			"outputs": [
				{
					"internalType": "uint256",
					"name": "",
					"type": "uint256"
				}
			],
			"stateMutability": "view",
			"type": "function"
		},
		{
			"inputs": [],
			"name": "totalRewards",
			"outputs": [
				{
					"internalType": "uint256",
					"name": "",
					"type": "uint256"
				}
			],
			"stateMutability": "view",
			"type": "function"
		},
		{
			"inputs": [],
			"name": "validatorPartPercent",
			"outputs": [
				{
					"internalType": "uint256",
					"name": "",
					"type": "uint256"
				}
			],
			"stateMutability": "view",
			"type": "function"
		}
	]
}