{
	"Params.sol": {
		"Params": {
			"abi": [
				{
					"inputs": [],
					"name": "BronzeValidatorStaking",
					"outputs": [
						{
							"internalType": "uint256",
							"name": "",
							"type": "uint256"
						}
					],
					"stateMutability": "view",
					"type": "function"
				},
				{
					"inputs": [],
					"name": "GoldValidatorStaking",
					"outputs": [
						{
							"internalType": "uint256",
							"name": "",
							"type": "uint256"
						}
					],
					"stateMutability": "view",
					"type": "function"
				},
				{
					"inputs": [],
					"name": "MaxValidators",
					"outputs": [
						{
							"internalType": "uint16",
							"name": "",
							"type": "uint16"
						}
					],
					"stateMutability": "view",
					"type": "function"
				},
				{
					"inputs": [],
					"name": "MinimalStakingCoin",
					"outputs": [
						{
							"internalType": "uint256",
							"name": "",
							"type": "uint256"
						}
					],
					"stateMutability": "view",
					"type": "function"
				},
				{
					"inputs": [],
					"name": "ProposalAddr",
					"outputs": [
						{
							"internalType": "address",
							"name": "",
							"type": "address"
						}
					],
					"stateMutability": "view",
					"type": "function"
				},
				{
					"inputs": [],
					"name": "PunishContractAddr",
					"outputs": [
						{
							"internalType": "address",
							"name": "",
							"type": "address"
						}
					],
					"stateMutability": "view",
					"type": "function"
				},
				{
					"inputs": [],
					"name": "SilverValidatorStaking",
					"outputs": [
						{
							"internalType": "uint256",
							"name": "",
							"type": "uint256"
						}
					],
					"stateMutability": "view",
					"type": "function"
				},
				{
					"inputs": [],
					"name": "SlashingContractAddr",
					"outputs": [
						{
							"internalType": "address",
							"name": "",
							"type": "address"
						}
					],
					"stateMutability": "view",
					"type": "function"
				},
				{
					"inputs": [],
					"name": "StakingLockPeriod",
					"outputs": [
						{
							"internalType": "uint64",
							"name": "",
							"type": "uint64"
						}
					],
					"stateMutability": "view",
					"type": "function"
				},
				{
					"inputs": [],
					"name": "ValidatorContractAddr",
					"outputs": [
						{
							"internalType": "address payable",
							"name": "",
							"type": "address"
						}
					],
					"stateMutability": "view",
					"type": "function"
				},
				{
					"inputs": [],
					"name": "creatorPartPercent",
					"outputs": [
						{
							"internalType": "uint256",
							"name": "",
							"type": "uint256"
						}
					],
					"stateMutability": "view",
					"type": "function"
				},
				{
					"inputs": [],
					"name": "extraRewardsPerBlock",
					"outputs": [
						{
							"internalType": "uint256",
							"name": "",
							"type": "uint256"
						}
					],
					"stateMutability": "view",
					"type": "function"
				},
				{
					"inputs": [],
					"name": "initialized",
					"outputs": [
						{
							"internalType": "bool",
							"name": "",
							"type": "bool"
						}
					],
					"stateMutability": "view",
					"type": "function"
				},
				{
					"inputs": [],
					"name": "minimumValidatorStaking",
					"outputs": [
						{
							"internalType": "uint256",
							"name": "",
							"type": "uint256"
						}
					],
					"stateMutability": "view",
					"type": "function"
				},
				{
					"inputs": [],
					"name": "rewardFund",
					"outputs": [
						{
							"internalType": "uint256",
							"name": "",
							"type": "uint256"
						}
					],
					"stateMutability": "view",
					"type": "function"
				},
				{
					"inputs": [],
					"name": "stakerPartPercent",
					"outputs": [
						{
							"internalType": "uint256",
							"name": "",
							"type": "uint256"
						}
					],
					"stateMutability": "view",
					"type": "function"
				},
				{
					"inputs": [],
					"name": "totalRewards",
					"outputs": [
						{
							"internalType": "uint256",
							"name": "",
							"type": "uint256"
						}
					],
					"stateMutability": "view",
					"type": "function"
				},
				{
					"inputs": [],
					"name": "validatorPartPercent",
					"outputs": [
						{
							"internalType": "uint256",
							"name": "",
							"type": "uint256"
						}
					],
					"stateMutability": "view",
					"type": "function"
				}
			],
			"devdoc": {
				"kind": "dev",
				"methods": {},
				"version": 1
			},
			"evm": {
				"assembly": "    /* \"Params.sol\":57:2833  contract Params {... */\n  mstore(0x40, 0x80)\n  callvalue\n  dup1\n  iszero\n  tag_1\n  jumpi\n  0x00\n  dup1\n  revert\ntag_1:\n  pop\n  dataSize(sub_0)\n  dup1\n  dataOffset(sub_0)\n  0x00\n  codecopy\n  0x00\n  return\nstop\n\nsub_0: assembly {\n        /* \"Params.sol\":57:2833  contract Params {... */\n      mstore(0x40, 0x80)\n      callvalue\n      dup1\n      iszero\n      tag_1\n      jumpi\n      0x00\n      dup1\n      revert\n    tag_1:\n      pop\n      jumpi(tag_2, lt(calldatasize, 0x04))\n      shr(0xe0, calldataload(0x00))\n      dup1\n      0x6233be5d\n      gt\n      tag_21\n      jumpi\n      dup1\n      0xcd779d21\n      gt\n      tag_22\n      jumpi\n      dup1\n      0xcd779d21\n      eq\n      tag_16\n      jumpi\n      dup1\n      0xd5074883\n      eq\n      tag_17\n      jumpi\n      dup1\n      0xdaa77ea2\n      eq\n      tag_18\n      jumpi\n      dup1\n      0xdb78dd28\n      eq\n      tag_19\n      jumpi\n      dup1\n      0xefe22266\n      eq\n      tag_20\n      jumpi\n      0x00\n      dup1\n      revert\n    tag_22:\n      dup1\n      0x6233be5d\n      eq\n      tag_12\n      jumpi\n      dup1\n      0x8ae53dbd\n      eq\n      tag_13\n      jumpi\n      dup1\n      0xbe645692\n      eq\n      tag_14\n      jumpi\n      dup1\n      0xc967f90f\n      eq\n      tag_15\n      jumpi\n      0x00\n      dup1\n      revert\n    tag_21:\n      dup1\n      0x182637b8\n      gt\n      tag_23\n      jumpi\n      dup1\n      0x182637b8\n      eq\n      tag_7\n      jumpi\n      dup1\n      0x1b5e358c\n      eq\n      tag_8\n      jumpi\n      dup1\n      0x32dc3b94\n      eq\n      tag_9\n      jumpi\n      dup1\n      0x3a061bd3\n      eq\n      tag_10\n      jumpi\n      dup1\n      0x42127ee7\n      eq\n      tag_11\n      jumpi\n      0x00\n      dup1\n      revert\n    tag_23:\n      dup1\n      0x0976c65d\n      eq\n      tag_3\n      jumpi\n      dup1\n      0x0a0b5e51\n      eq\n      tag_3\n      jumpi\n      dup1\n      0x0e15561a\n      eq\n      tag_5\n      jumpi\n      dup1\n      0x158ef93e\n      eq\n      tag_6\n      jumpi\n    tag_2:\n      0x00\n      dup1\n      revert\n        /* \"Params.sol\":1163:1235  uint256 public constant minimumValidatorStaking = BronzeValidatorStaking */\n    tag_3:\n      tag_24\n        /* \"Params.sol\":898:908  3947 ether */\n      0xd5f7a0e3e5d2cc0000\n        /* \"Params.sol\":1163:1235  uint256 public constant minimumValidatorStaking = BronzeValidatorStaking */\n      dup2\n      jump\n    tag_24:\n      mload(0x40)\n        /* \"#utility.yul\":160:185   */\n      swap1\n      dup2\n      mstore\n        /* \"#utility.yul\":148:150   */\n      0x20\n        /* \"#utility.yul\":133:151   */\n      add\n        /* \"Params.sol\":1163:1235  uint256 public constant minimumValidatorStaking = BronzeValidatorStaking */\n    tag_26:\n      mload(0x40)\n      dup1\n      swap2\n      sub\n      swap1\n      return\n        /* \"Params.sol\":1776:1803  uint256 public totalRewards */\n    tag_5:\n      tag_24\n      sload(0x02)\n      dup2\n      jump\n        /* \"Params.sol\":79:102  bool public initialized */\n    tag_6:\n      sload(0x00)\n      tag_34\n      swap1\n      0xff\n      and\n      dup2\n      jump\n    tag_34:\n      mload(0x40)\n        /* \"#utility.yul\":361:375   */\n      swap1\n      iszero\n        /* \"#utility.yul\":354:376   */\n      iszero\n        /* \"#utility.yul\":336:377   */\n      dup2\n      mstore\n        /* \"#utility.yul\":324:326   */\n      0x20\n        /* \"#utility.yul\":309:327   */\n      add\n        /* \"Params.sol\":79:102  bool public initialized */\n      tag_26\n        /* \"#utility.yul\":196:383   */\n      jump\n        /* \"Params.sol\":450:547  address... */\n    tag_7:\n      tag_38\n        /* \"Params.sol\":505:547  0x000000000000000000000000000000000000f007 */\n      0xf007\n        /* \"Params.sol\":450:547  address... */\n      dup2\n      jump\n    tag_38:\n      mload(0x40)\n      sub(shl(0xa0, 0x01), 0x01)\n        /* \"#utility.yul\":552:584   */\n      swap1\n      swap2\n      and\n        /* \"#utility.yul\":534:585   */\n      dup2\n      mstore\n        /* \"#utility.yul\":522:524   */\n      0x20\n        /* \"#utility.yul\":507:525   */\n      add\n        /* \"Params.sol\":450:547  address... */\n      tag_26\n        /* \"#utility.yul\":388:591   */\n      jump\n        /* \"Params.sol\":254:349  address... */\n    tag_8:\n      tag_38\n        /* \"Params.sol\":307:349  0x000000000000000000000000000000000000F001 */\n      0xf001\n        /* \"Params.sol\":254:349  address... */\n      dup2\n      jump\n        /* \"Params.sol\":928:988  uint256 public constant SilverValidatorStaking = 39474 ether */\n    tag_9:\n      tag_24\n        /* \"Params.sol\":977:988  39474 ether */\n      0x085be3cbc1c8d9880000\n        /* \"Params.sol\":928:988  uint256 public constant SilverValidatorStaking = 39474 ether */\n      dup2\n      jump\n        /* \"Params.sol\":133:248  address payable... */\n    tag_10:\n      tag_38\n        /* \"Params.sol\":205:247  0x000000000000000000000000000000000000f000 */\n      0xf000\n        /* \"Params.sol\":133:248  address payable... */\n      dup2\n      jump\n        /* \"Params.sol\":1417:1466  uint public constant validatorPartPercent = 60000 */\n    tag_11:\n      tag_24\n        /* \"Params.sol\":1461:1466  60000 */\n      0xea60\n        /* \"Params.sol\":1417:1466  uint public constant validatorPartPercent = 60000 */\n      dup2\n      jump\n        /* \"Params.sol\":355:444  address... */\n    tag_12:\n      tag_38\n        /* \"Params.sol\":402:444  0x000000000000000000000000000000000000F002 */\n      0xf002\n        /* \"Params.sol\":355:444  address... */\n      dup2\n      jump\n        /* \"Params.sol\":1634:1688  uint256 public constant extraRewardsPerBlock = 1 ether */\n    tag_13:\n      tag_24\n        /* \"Params.sol\":1681:1688  1 ether */\n      0x0de0b6b3a7640000\n        /* \"Params.sol\":1634:1688  uint256 public constant extraRewardsPerBlock = 1 ether */\n      dup2\n      jump\n        /* \"Params.sol\":754:807  uint256 public constant MinimalStakingCoin = 32 ether */\n    tag_14:\n      tag_24\n        /* \"Params.sol\":799:807  32 ether */\n      0x01bc16d674ec800000\n        /* \"Params.sol\":754:807  uint256 public constant MinimalStakingCoin = 32 ether */\n      dup2\n      jump\n        /* \"Params.sol\":575:619  uint16 public constant MaxValidators = 10000 */\n    tag_15:\n      tag_64\n        /* \"Params.sol\":614:619  10000 */\n      0x2710\n        /* \"Params.sol\":575:619  uint16 public constant MaxValidators = 10000 */\n      dup2\n      jump\n    tag_64:\n      mload(0x40)\n        /* \"#utility.yul\":994:1000   */\n      0xffff\n        /* \"#utility.yul\":982:1001   */\n      swap1\n      swap2\n      and\n        /* \"#utility.yul\":964:1002   */\n      dup2\n      mstore\n        /* \"#utility.yul\":952:954   */\n      0x20\n        /* \"#utility.yul\":937:955   */\n      add\n        /* \"Params.sol\":575:619  uint16 public constant MaxValidators = 10000 */\n      tag_26\n        /* \"#utility.yul\":820:1008   */\n      jump\n        /* \"Params.sol\":1316:1362  uint public constant stakerPartPercent = 30000 */\n    tag_16:\n      tag_24\n        /* \"Params.sol\":1357:1362  30000 */\n      0x7530\n        /* \"Params.sol\":1316:1362  uint public constant stakerPartPercent = 30000 */\n      dup2\n      jump\n        /* \"Params.sol\":1010:1069  uint256 public constant GoldValidatorStaking = 394737 ether */\n    tag_17:\n      tag_24\n        /* \"Params.sol\":1057:1069  394737 ether */\n      0x5396bc536dbd89240000\n        /* \"Params.sol\":1010:1069  uint256 public constant GoldValidatorStaking = 394737 ether */\n      dup2\n      jump\n        /* \"Params.sol\":1534:1581  uint public constant creatorPartPercent = 10000 */\n    tag_18:\n      tag_24\n        /* \"Params.sol\":1576:1581  10000 */\n      0x2710\n        /* \"Params.sol\":1534:1581  uint public constant creatorPartPercent = 10000 */\n      dup2\n      jump\n        /* \"Params.sol\":700:748  uint64 public constant StakingLockPeriod = 86400 */\n    tag_19:\n      tag_77\n        /* \"Params.sol\":743:748  86400 */\n      0x015180\n        /* \"Params.sol\":700:748  uint64 public constant StakingLockPeriod = 86400 */\n      dup2\n      jump\n    tag_77:\n      mload(0x40)\n        /* \"#utility.yul\":1187:1205   */\n      0xffffffffffffffff\n        /* \"#utility.yul\":1175:1206   */\n      swap1\n      swap2\n      and\n        /* \"#utility.yul\":1157:1207   */\n      dup2\n      mstore\n        /* \"#utility.yul\":1145:1147   */\n      0x20\n        /* \"#utility.yul\":1130:1148   */\n      add\n        /* \"Params.sol\":700:748  uint64 public constant StakingLockPeriod = 86400 */\n      tag_26\n        /* \"#utility.yul\":1013:1213   */\n      jump\n        /* \"Params.sol\":1744:1769  uint256 public rewardFund */\n    tag_20:\n      tag_24\n      sload(0x01)\n      dup2\n      jump\n\n    auxdata: 0xa26469706673582212205cf0c27a96393a3d0bb993481477f50317f03e97992b3b8fd0f537da69f4ae4464736f6c63430008110033\n}\n",
				"bytecode": {
					"linkReferences": {},
					"object": "608060405234801561001057600080fd5b5061027a806100206000396000f3fe608060405234801561001057600080fd5b50600436106101165760003560e01c80636233be5d116100a2578063cd779d2111610071578063cd779d21146101f5578063d5074883146101fe578063daa77ea21461020f578063db78dd2814610218578063efe222661461023b57600080fd5b80636233be5d146101b15780638ae53dbd146101ba578063be645692146101c9578063c967f90f146101d957600080fd5b8063182637b8116100e9578063182637b8146101645780631b5e358c1461018557806332dc3b941461018e5780633a061bd31461019f57806342127ee7146101a857600080fd5b80630976c65d1461011b5780630a0b5e511461011b5780630e15561a1461013e578063158ef93e14610147575b600080fd5b61012b68d5f7a0e3e5d2cc000081565b6040519081526020015b60405180910390f35b61012b60025481565b6000546101549060ff1681565b6040519015158152602001610135565b61016d61f00781565b6040516001600160a01b039091168152602001610135565b61016d61f00181565b61012b69085be3cbc1c8d988000081565b61016d61f00081565b61012b61ea6081565b61016d61f00281565b61012b670de0b6b3a764000081565b61012b6801bc16d674ec80000081565b6101e261271081565b60405161ffff9091168152602001610135565b61012b61753081565b61012b695396bc536dbd8924000081565b61012b61271081565b6102226201518081565b60405167ffffffffffffffff9091168152602001610135565b61012b6001548156fea26469706673582212205cf0c27a96393a3d0bb993481477f50317f03e97992b3b8fd0f537da69f4ae4464736f6c63430008110033",
					"opcodes": "PUSH1 0x80 PUSH1 0x40 MSTORE CALLVALUE DUP1 ISZERO PUSH2 0x10 JUMPI PUSH1 0x0 DUP1 REVERT JUMPDEST POP PUSH2 0x27A DUP1 PUSH2 0x20 PUSH1 0x0 CODECOPY PUSH1 0x0 RETURN INVALID PUSH1 0x80 PUSH1 0x40 MSTORE CALLVALUE DUP1 ISZERO PUSH2 0x10 JUMPI PUSH1 0x0 DUP1 REVERT JUMPDEST POP PUSH1 0x4 CALLDATASIZE LT PUSH2 0x116 JUMPI PUSH1 0x0 CALLDATALOAD PUSH1 0xE0 SHR DUP1 PUSH4 0x6233BE5D GT PUSH2 0xA2 JUMPI DUP1 PUSH4 0xCD779D21 GT PUSH2 0x71 JUMPI DUP1 PUSH4 0xCD779D21 EQ PUSH2 0x1F5 JUMPI DUP1 PUSH4 0xD5074883 EQ PUSH2 0x1FE JUMPI DUP1 PUSH4 0xDAA77EA2 EQ PUSH2 0x20F JUMPI DUP1 PUSH4 0xDB78DD28 EQ PUSH2 0x218 JUMPI DUP1 PUSH4 0xEFE22266 EQ PUSH2 0x23B JUMPI PUSH1 0x0 DUP1 REVERT JUMPDEST DUP1 PUSH4 0x6233BE5D EQ PUSH2 0x1B1 JUMPI DUP1 PUSH4 0x8AE53DBD EQ PUSH2 0x1BA JUMPI DUP1 PUSH4 0xBE645692 EQ PUSH2 0x1C9 JUMPI DUP1 PUSH4 0xC967F90F EQ PUSH2 0x1D9 JUMPI PUSH1 0x0 DUP1 REVERT JUMPDEST DUP1 PUSH4 0x182637B8 GT PUSH2 0xE9 JUMPI DUP1 PUSH4 0x182637B8 EQ PUSH2 0x164 JUMPI DUP1 PUSH4 0x1B5E358C EQ PUSH2 0x185 JUMPI DUP1 PUSH4 0x32DC3B94 EQ PUSH2 0x18E JUMPI DUP1 PUSH4 0x3A061BD3 EQ PUSH2 0x19F JUMPI DUP1 PUSH4 0x42127EE7 EQ PUSH2 0x1A8 JUMPI PUSH1 0x0 DUP1 REVERT JUMPDEST DUP1 PUSH4 0x976C65D EQ PUSH2 0x11B JUMPI DUP1 PUSH4 0xA0B5E51 EQ PUSH2 0x11B JUMPI DUP1 PUSH4 0xE15561A EQ PUSH2 0x13E JUMPI DUP1 PUSH4 0x158EF93E EQ PUSH2 0x147 JUMPI JUMPDEST PUSH1 0x0 DUP1 REVERT JUMPDEST PUSH2 0x12B PUSH9 0xD5F7A0E3E5D2CC0000 DUP2 JUMP JUMPDEST PUSH1 0x40 MLOAD SWAP1 DUP2 MSTORE PUSH1 0x20 ADD JUMPDEST PUSH1 0x40 MLOAD DUP1 SWAP2 SUB SWAP1 RETURN JUMPDEST PUSH2 0x12B PUSH1 0x2 SLOAD DUP2 JUMP JUMPDEST PUSH1 0x0 SLOAD PUSH2 0x154 SWAP1 PUSH1 0xFF AND DUP2 JUMP JUMPDEST PUSH1 0x40 MLOAD SWAP1 ISZERO ISZERO DUP2 MSTORE PUSH1 0x20 ADD PUSH2 0x135 JUMP JUMPDEST PUSH2 0x16D PUSH2 0xF007 DUP2 JUMP JUMPDEST PUSH1 0x40 MLOAD PUSH1 0x1 PUSH1 0x1 PUSH1 0xA0 SHL SUB SWAP1 SWAP2 AND DUP2 MSTORE PUSH1 0x20 ADD PUSH2 0x135 JUMP JUMPDEST PUSH2 0x16D PUSH2 0xF001 DUP2 JUMP JUMPDEST PUSH2 0x12B PUSH10 0x85BE3CBC1C8D9880000 DUP2 JUMP JUMPDEST PUSH2 0x16D PUSH2 0xF000 DUP2 JUMP JUMPDEST PUSH2 0x12B PUSH2 0xEA60 DUP2 JUMP JUMPDEST PUSH2 0x16D PUSH2 0xF002 DUP2 JUMP JUMPDEST PUSH2 0x12B PUSH8 0xDE0B6B3A7640000 DUP2 JUMP JUMPDEST PUSH2 0x12B PUSH9 0x1BC16D674EC800000 DUP2 JUMP JUMPDEST PUSH2 0x1E2 PUSH2 0x2710 DUP2 JUMP JUMPDEST PUSH1 0x40 MLOAD PUSH2 0xFFFF SWAP1 SWAP2 AND DUP2 MSTORE PUSH1 0x20 ADD PUSH2 0x135 JUMP JUMPDEST PUSH2 0x12B PUSH2 0x7530 DUP2 JUMP JUMPDEST PUSH2 0x12B PUSH10 0x5396BC536DBD89240000 DUP2 JUMP JUMPDEST PUSH2 0x12B PUSH2 0x2710 DUP2 JUMP JUMPDEST PUSH2 0x222 PUSH3 0x15180 DUP2 JUMP JUMPDEST PUSH1 0x40 MLOAD PUSH8 0xFFFFFFFFFFFFFFFF SWAP1 SWAP2 AND DUP2 MSTORE PUSH1 0x20 ADD PUSH2 0x135 JUMP JUMPDEST PUSH2 0x12B PUSH1 0x1 SLOAD DUP2 JUMP INVALID LOG2 PUSH5 0x6970667358 0x22 SLT KECCAK256 0x5C CREATE 0xC2 PUSH27 0x96393A3D0BB993481477F50317F03E97992B3B8FD0F537DA69F4AE DIFFICULTY PUSH5 0x736F6C6343 STOP ADDMOD GT STOP CALLER "
				},
				"gasEstimates": {
					"creation": {
						"codeDepositCost": "126800",
						"executionCost": "171",
						"totalCost": "126971"
					},
					"external": {
						"BronzeValidatorStaking()": "230",
						"GoldValidatorStaking()": "228",
						"MaxValidators()": "293",
						"MinimalStakingCoin()": "251",
						"ProposalAddr()": "239",
						"PunishContractAddr()": "261",
						"SilverValidatorStaking()": "251",
						"SlashingContractAddr()": "239",
						"StakingLockPeriod()": "292",
						"ValidatorContractAddr()": "305",
						"creatorPartPercent()": "250",
						"extraRewardsPerBlock()": "229",
						"initialized()": "2400",
						"minimumValidatorStaking()": "208",
						"rewardFund()": "2394",
						"stakerPartPercent()": "206",
						"totalRewards()": "2352",
						"validatorPartPercent()": "295"
					}
				},
				"methodIdentifiers": {
					"BronzeValidatorStaking()": "0a0b5e51",
					"GoldValidatorStaking()": "d5074883",
					"MaxValidators()": "c967f90f",
					"MinimalStakingCoin()": "be645692",
					"ProposalAddr()": "6233be5d",
					"PunishContractAddr()": "1b5e358c",
					"SilverValidatorStaking()": "32dc3b94",
					"SlashingContractAddr()": "182637b8",
					"StakingLockPeriod()": "db78dd28",
					"ValidatorContractAddr()": "3a061bd3",
					"creatorPartPercent()": "daa77ea2",
					"extraRewardsPerBlock()": "8ae53dbd",
					"initialized()": "158ef93e",
					"minimumValidatorStaking()": "0976c65d",
					"rewardFund()": "efe22266",
					"stakerPartPercent()": "cd779d21",
					"totalRewards()": "0e15561a",
					"validatorPartPercent()": "42127ee7"
				}
			},
			"storageLayout": {
				"storage": [
					{
						"astId": 3,
						"contract": "Params.sol:Params",
						"label": "initialized",
						"offset": 0,
						"slot": "0",
						"type": "t_bool"
					},
					{
						"astId": 53,
						"contract": "Params.sol:Params",
						"label": "rewardFund",
						"offset": 0,
						"slot": "1",
						"type": "t_uint256"
					},
					{
						"astId": 55,
						"contract": "Params.sol:Params",
						"label": "totalRewards",
						"offset": 0,
						"slot": "2",
						"type": "t_uint256"
					}
				],
				"types": {
					"t_bool": {
						"encoding": "inplace",
						"label": "bool",
						"numberOfBytes": "1"
					},
					"t_uint256": {
						"encoding": "inplace",
						"label": "uint256",
						"numberOfBytes": "32"
					}
				}
			},
			"userdoc": {
				"kind": "user",
				"methods": {},
				"version": 1
			}
		}
	}
}